11902025B42524694TEPUY BURGER SL                         T620029098PAU LAPORTE                             1900000000000  0000000000000000000023 000000015176017000000000782651                                                                                                                                                                                                                                                                                                                                     
21902025B4252469404725214W         SCHUMLLER ESTRADA ALVIN DAVID           00A00 00000008577960000000000000 0000000000000000000000000000000000000000000000003         0100000000000000000000000564400000000000000000000000000000000000000000000000000000000000 00000000000000000000000000 0000000000000000000000000000000000000000000000000000000000000000000000000000000000000000000000000000000000000000                                                                                                          
21902025B4252469446083684X         ROLDAN PEDRO                            00A00 00000003458650000000000000 0000000000000000000000000000000000000000000020033         0100000000000000000000000303090000000000000000000000000000000000000000000000000000000000 00000000769110000000000000 0000000000000000000000000000000000000000000000000000000000000000000000000000000000000000000000000000000000000000                                                                                                          
21902025B4252469448794244C         PERALES MARTIN NAZARIA COROMOTO         46A00 00000006000000000000210000 0000000000000000000000000000000000000000000000003         0100000000000000000000000000000000000000000000000000000000000000000000000000000000000000 00000000000000000000000000 0000000000000000000000000000000000000000000000000000000000000000000000000000000000000000000000000000000000000000                                                                                                          
21902025B4252469448800739Y         ZAMBRANO PERALES MANUEL ALEJANDRO       00A00 00000020849390000000176230 0000000000000000000000000000000000000000000000003         0100000000000000000000000000000000000000000000000000000000000000000000000000000000000000 00000000000000000000000000 0000000000000000000000000000000000000000000000000000000000000000000000000000000000000000000000000000000000000000                                                                                                          
21902025B4252469451774361G         GUIJARRO LILLO JAVIER                   03A00 00000011562850000000000000 0000000000000000000000000000000000000000000000003         0100000000000000000000000775160000000000000000000000000000000000000000000000000000000000 00000000000000000000000000 0000000000000000000000000000000000000000000000000000000000000000000000000000000000000000000000000000000000000000                                                                                                          
21902025B4252469453231738D         GARCIA SALMERON VICTORIANO MANUEL       00A00 00000001900900000000000000 0000000000000000000000000000000000000000000019903         0100000000000000000000000123160000000000000000000000000000000000000000000000000000000000 00000000000000000000000000 0000000000000000000000000000000000000000000000000000000000000000000000000000000000000000000000000000000000000000                                                                                                          
21902025B4252469453249237M         FEMENIA LECEA MAY                       00A00 00000002476500000000004951 0000000000000000000000000000000000000000000020033         0100000000000000000000000170260000000000000000000000000000000000000000000000000000000000 00000000000000000000000000 0000000000000000000000000000000000000000000000000000000000000000000000000000000000000000000000000000000000000000                                                                                                          
21902025B4252469454454402Q         MORENO VICTORIA ALEIX                   03A00 00000000022770000000000000 0000000000000000000000000000000000000000000000003         0100000000000000000000000001540000000000000000000000000000000000000000000000000000000000 00000000000000000000000000 0000000000000000000000000000000000000000000000000000000000000000000000000000000000000000000000000000000000000000                                                                                                          
21902025B4252469455018719M         JURADO CRUZ PAOLA CRISTINA              00A00 00000001254250000000002510 0000000000000000000000000000000000000000000020053         0100000000000000000000000088790000000000000000000000000000000000000000000000000000000000 00000000000000000000000000 0000000000000000000000000000000000000000000000000000000000000000000000000000000000000000000000000000000000000000                                                                                                          
21902025B4252469478152210G         LOUNICI MERIEM                          00A00 00000001518650000000003039 0000000000000000000000000000000000000000000020063         0100000000000000000000000107780000000000000000000000000000000000000000000000000000000000 00000000000000000000000000 0000000000000000000000000000000000000000000000000000000000000000000000000000000000000000000000000000000000000000                                                                                                          
21902025B42524694X9799225Y         AVADANEI LARISA STEFANIA                03A00 00000000668300000000000000 0000000000000000000000000000000000000000000000003         0100000000000000000000000044090000000000000000000000000000000000000000000000000000000000 00000000000000000000000000 0000000000000000000000000000000000000000000000000000000000000000000000000000000000000000000000000000000000000000                                                                                                          
21902025B42524694Y5381343R         ROSADORO MARIO ANDRES                   00A00 00000015816990000000000000 0000000000000000000000000000000000000000000000003         0100000000000000000000001024980000000000000000000000000000000000000000000000000000000000 00000000000000000000000000 0000000000000000000000000000000000000000000000000000000000000000000000000000000000000000000000000000000000000000                                                                                                          
21902025B42524694Y7509823S         JURADO GARCIA CARLOS MARTIN             03A00 00000021017810000000174073 0000000000000000000000000000000000000000000019871         0100000000000000000000001361970000000000000000000000000000010000000000000000000000002000 00000000000000000000000000 0000000000000000000000000000000000000000000000000000000000000000000000000000000000000000000000000000000000000000                                                                                                          
21902025B42524694Y7724535E         DABROWSKI DONATI FEDERICO EMILIANO      00A00 00000015045630000000101259 0000000000000000000000000000000000000000000019903         0100000000000000000000001098160000000000000000000000000000000000000000000000000000000000 00000001584000000000010687 0000000000000000000000000000000000000000000000000000000000000000000000000000000000000000000000000000000000000000                                                                                                          
21902025B42524694Y9174572R         GUERRA AGUILAR ANTHONY SAMUEL           03A00 00000001804010000000009435 0000000000000000000000000000000000000000000000003         0100000000000000000000000119580000000000000000000000000000000000000000000000000000000000 00000000000000000000000000 0000000000000000000000000000000000000000000000000000000000000000000000000000000000000000000000000000000000000000                                                                                                          
21902025B42524694Y9224360V         BRICEÑO URDANETA LUIS JOSE              03A00 00000001684380000000000000 0000000000000000000000000000000000000000000000003         0100000000000000000000000111010000000000000000000000000000000000000000000000000000000000 00000000000000000000000000 0000000000000000000000000000000000000000000000000000000000000000000000000000000000000000000000000000000000000000                                                                                                          
21902025B42524694Y9711595C         CASTILLO MENDEZ PAOLA ALEJANDRA         03A00 00000007645300000000000000 0000000000000000000000000000000000000000000000003         0100000000000000000000000503530000000000000000000000000000000000000000000000000000000000 00000000000000000000000000 0000000000000000000000000000000000000000000000000000000000000000000000000000000000000000000000000000000000000000                                                                                                          
21902025B42524694Z0232553M         GARCIA BARRERA LENNA                    03A00 00000000430950000000000000 0000000000000000000000000000000000000000000020013         0100000000000000000000000048480000000000000000000000000000000000000000000000000000000000 00000000182580000000000000 0000000000000000000000000000000000000000000000000000000000000000000000000000000000000000000000000000000000000000                                                                                                          
21902025B42524694Z0673117G         BRITO ORTIZ ANDREA                      00A00 00000004900390000000009798 0000000000000000000000000000000000000000000020003         0100000000000000000000000326750000000000000000000000000000000000000000000000000000000000 00000000000000000000000000 0000000000000000000000000000000000000000000000000000000000000000000000000000000000000000000000000000000000000000                                                                                                          
21902025B42524694Z1994241P         REYES LEONETT ANGY PAOLA                00A00 00000008850120000000000000 0000000000000000000000000000000000000000000000003         0100000000000000000000000588000000000000000000000000000000000000000000000000000000000000 00000000000000000000000000 0000000000000000000000000000000000000000000000000000000000000000000000000000000000000000000000000000000000000000                                                                                                          
21902025B42524694Z2477711H         TERAN SEBASTIAN                         00A00 00000000217390000000000435 0000000000000000000000000000000000000000000020013         0100000000000000000000000016310000000000000000000000000000000000000000000000000000000000 00000000000000000000000000 0000000000000000000000000000000000000000000000000000000000000000000000000000000000000000000000000000000000000000                                                                                                          
21902025B42524694Z2553378S         MATHEUS VALDIVIESO ARIANNA              00A00 00000009643110000000072477 0000000000000000000000000000000000000000000019943         0100000000000000000000000625780000000000000000000000000000000000000000000000000000000000 00000000000000000000000000 0000000000000000000000000000000000000000000000000000000000000000000000000000000000000000000000000000000000000000                                                                                                          
21902025B42524694Z2779517H         COLMENAREZ VARGAS LUIS ENRIQUE          00A00 00000003878180000000007757 0000000000000000000000000000000000000000000019933         0100000000000000000000000259270000000000000000000000000000000000000000000000000000000000 00000000000000000000000000 0000000000000000000000000000000000000000000000000000000000000000000000000000000000000000000000000000000000000000                                                                                                          
